:020000040800F2
:101000000040002035440008A1690008A5690008D7
:1010100000000000000000000000000000000000D0
:10102000000000000000000000000000A9690008A6
:101030000000000000000000AD690008B169000870
:10104000854400088544000885440008854400085C
:10105000854400088544000885440008656C000844
:1010600085440008B5690008716A0008E96B00084A
:10107000D56A0008854400088544000885440008B6
:10108000596B0008A16B000885440008BD6B00087F
:10109000854400087D6B00088544000885440008ED
:1010A00085440008854400088544000885440008FC
:0C10B000854400088544000885440008C1
:1010C000002243088B4274D303098B425FD3030A87
:1010D0008B4244D3030B8B4228D3030C8B420DD39A
:1010E000FF22090212BA030C8B4202D31212090228
:1010F00065D0030B8B4219D300E0090AC30B8B4266
:1011000001D3CB03C01A5241830B8B4201D38B0313
:10111000C01A5241430B8B4201D34B03C01A5241B8
:10112000030B8B4201D30B03C01A5241C30A8B42FB
:1011300001D3CB02C01A5241830A8B4201D38B02E6
:10114000C01A5241430A8B4201D34B02C01A52418A
:10115000030A8B4201D30B02C01A5241CDD2C309FC
:101160008B4201D3CB01C01A524183098B4201D378
:101170008B01C01A524143098B4201D34B01C01A63
:10118000524103098B4201D30B01C01A5241C308DB
:101190008B4201D3CB00C01A524183088B4201D34A
:1011A0008B00C01A524143088B4201D34B00C01A36
:1011B0005241411A00D20146524110467047FFE7A2
:1011C00001B5002000F0F0F802BDC0460029F7D0BC
:1011D00076E7704703460B437FD4002243088B42D7
:1011E00074D303098B425FD3030A8B4244D3030BAE
:1011F0008B4228D3030C8B420DD3FF22090212BA73
:10120000030C8B4202D31212090265D0030B8B42EE
:1012100019D300E0090AC30B8B4201D3CB03C01AD8
:101220005241830B8B4201D38B03C01A5241430BB3
:101230008B4201D34B03C01A5241030B8B4201D3A3
:101240000B03C01A5241C30A8B4201D3CB02C01A0E
:101250005241830A8B4201D38B02C01A5241430A86
:101260008B4201D34B02C01A5241030A8B4201D375
:101270000B02C01A5241CDD2C3098B4201D3CB011C
:10128000C01A524183098B4201D38B01C01A5241CB
:1012900043098B4201D34B01C01A524103098B42CF
:1012A00001D30B01C01A5241C3088B4201D3CB00BA
:1012B000C01A524183088B4201D38B00C01A52419D
:1012C00043088B4201D34B00C01A5241411A00D24D
:1012D00001465241104670475DE0CA0F00D04942B6
:1012E000031000D34042534000229C4603098B4226
:1012F0002DD3030A8B4212D3FC22890112BA030AAE
:101300008B420CD3890192118B4208D3890192112F
:101310008B4204D389013AD0921100E08909C309B4
:101320008B4201D3CB01C01A524183098B4201D3B6
:101330008B01C01A524143098B4201D34B01C01AA1
:10134000524103098B4201D30B01C01A5241C30819
:101350008B4201D3CB00C01A524183088B4201D388
:101360008B00C01A5241D9D243088B4201D34B00A3
:10137000C01A5241411A00D20146634652415B10E5
:10138000104601D34042002B00D5494270476346C6
:101390005B1000D3404201B5002000F005F802BD0B
:1013A0000029F8D016E770477047C04610B5064CC4
:1013B0002378002B07D1054B002B02D0044800E016
:1013C00000BF0123237010BD84080020000000002E
:1013D000F46C0008044B10B5002B03D003490448FB
:1013E00000E000BF10BDC0460000000088080020DB
:1013F000F46C0008F0B5DE46454657464E46D64BDF
:10140000E0B5DA6F188892B2D44D111AD44C89B273
:101410002D8893464A098BB0218062808D4200D38B
:10142000CBE0D04D2D888D4200D8C6E00021CE4DB6
:101430009E6A29805968091A89B28A4289414942BB
:10144000986806916160D968081A80B2824280412A
:1014500041428C461869A16059690F1ABFB2BA425D
:10146000BF41794298690591E160D969081A80B253
:1014700082428041596A4542186A0495081A80B22E
:1014800082428041D96A404203906061881B80B2E9
:1014900082428041596B4642186B0296081A80B20C
:1014A00082428041D96BA6614642986B2561081A39
:1014B00080B28242804140420196E66107902062FC
:1014C000596C1D6C1E6D481B80B282428041DD6CE0
:1014D0004142986C1F6E281A5D6D80B2AD1BADB293
:1014E000AA42AD416D429E6DAA46E562DD6D824223
:1014F0008041AE1B5D6EB6B2ED1BADB2AA42AD41EE
:101500006F4208979D6E6763DF6EB242B6417F1BE4
:10151000BFB2BA42BF417F421D6FB946A7635F6F3A
:101520009B6F7F1BBFB2BA42BF417F42B846E763A1
:101530005F46FB1A9BB2069D9A429241039B09911A
:101540006B404B4061626146DF00029B049D594045
:101550000B004042079943404D4076429B003B437D
:1015600026636E4005991E43019B52424B405146F3
:101570004B405B001E434B462264A062089F9B00C9
:10158000FD001D43434615435A00784B15439946C9
:101590001B78002B18D0764B984643461B78002BBF
:1015A00002D00F235D1BEDB2B54236D05422A35AB0
:1015B0000133A35248230022E2540BB0F0BCBB46D7
:1015C000B246A946A046F0BD694B98461B78002B51
:1015D000E3D103F05DFE002809D04422A35C01336F
:1015E000DBB2A354642B02D9012342461370636813
:1015F000A06A0693A3689C46E36805932369049355
:1016000063690393A3690293E3690193236A0793D0
:10161000636A0993E36A9A46BFE70023524A13803C
:101620004622A35A0133A352236B012B01D1514A05
:101630001370624651025246069B40009B020B43C8
:101640001343059A1702049A3B43D701039A3B437D
:101650009701029A3B4352011343019A120113432B
:10166000079AD2001343099A920013434822184361
:10167000A35C002B1DD12F282EDD4D22A25C002A59
:101680004ED13D4D2878002897D03C4B1B78002B3D
:1016900093D14B461B78002B00D18EE75023E25CA0
:1016A000824245D0E05405284CD94E230122E25411
:1016B00083E7012B2FD0022B28D0032B00D07CE70F
:1016C000252800D079E74C214733E35A605C2C4948
:1016D000C8540023A35470E7421E2E2A05D8294A75
:1016E000254DC0B213802870CFE70028C9D14F2301
:1016F000E35C012B01D14C33E05400210023214A4B
:1017000011801D4A13704E22A35456E74A33E05409
:10171000493BA35451E74933E052483BA3544CE7BB
:10172000184A80B21080144A13704E22A35444E722
:10173000052807D94E22A35C0133DBB2A354052B45
:1017400000D83AE74E230022E254242821D80E4B39
:1017500080001B589F46C046800700206C07002071
:1017600014040020C40300203C06002008060020CA
:101770004D0600203606002068060020F0050020F7
:1017800094060020F20500200C6D000801222E4B6B
:101790001A702A782D4B1A7000232B700DE74823FE
:1017A0000122E254F5E72A4B5A7C2A4B1A70F0E7E3
:1017B000274B5A7C01239B1A264A1370E9E75123D1
:1017C0000022E25402330132E254E2E701235122C3
:1017D000A354D218A3544E33E35C012BD9D1053A5C
:1017E000A354D6E700F0ACFB194B174A5B7C0133DE
:1017F0001370CEE70122164B9A74CAE70022144BED
:101800009A74C6E70122124B5A740022114B1A70C7
:10181000BFE700220E4B5A740E4B01321A70B8E724
:1018200001220D4B1A70B4E70522074B1A70B0E77E
:101830000422054B1A70ACE70322034B1A70A8E789
:101840000222014B1A70A4E70E0600206906002050
:10185000940600205400002052060020F8B55123C1
:101860007E4CE35C002B33D15233E35C002B3BD046
:1018700052230022E2540133E35C002B00D1B7E095
:1018800053230022E254764B764A2100012058313E
:10189000887162668022A366734B744F1E78731C36
:1018A0009B00FA50B3009C460126F81841686D3A37
:1018B00035009540A36EC9092B40D3405940C9015A
:1018C00081600430013AF3D200236246BB50F8BD78
:1018D00025005835AE795827002E48D00023AB712B
:1018E0005233E35C002BC3D15323E35C002BC7D1FD
:1018F0005F4B1B78002B00D17DE00300C213012A4F
:101900007AD08213012A00D19FE04213012A00D12C
:1019100099E00213012A00D193E0C212012A00D1FA
:1019200095E08212012A00D195E04212012A00D1ED
:101930008FE000222266010A02094A400F2150402E
:101940000A000D0082431B014A481A431313C35C6B
:101950001540455DDB032B4315120D40455DAD027F
:101960002B4315112940415C49010B4391E7AB889A
:101970006A88E15B0133013201319BB292B289B2D4
:10198000AB806A80E153272B3ED8C72A49D93A4B0E
:1019900019211888FFF794FBFF2303408020C00023
:1019A00018436E805223E35C002B00D060E7533372
:1019B000E35C002B00D063E70F21020A03095340C8
:1019C0000A0043402B4D9A4300010243000B2B5C5D
:1019D00008001040285CDB03034310120840285C19
:1019E0008002034310110140695C49010B434CE73D
:1019F000224B234A49E7234B0F22083A1341510255
:101A00000B43226698B296E71F4B32210020185EE6
:101A1000FFF7E0FBFF230340C020C0001843AE8067
:101A2000C0E7C72907D98020184B80001B88E653E0
:101A3000DBB21843B6E75223E35C002B00D017E774
:101A400052E70C22D9E70D22D7E70E22D5E70B2269
:101A5000D3E70922D1E70A22CFE7C04614040020C9
:101A6000FB3D0700F1EF0000C703002084040020C5
:101A7000F0050020A06D0008320600203B6707003B
:101A800001E00000FFFF0000380600204E060020A5
:101A900070B50600049D8E420CDC0FE0AB420FD007
:101AA0008C18581964104010A14206D0A64209DCD7
:101AB000050022009642F1DB280070BD9642FBDA59
:101AC0001800FAE70300611CE5E7C0460300401A6E
:101AD00000D5C81A7047C046044980B24A6A92B21B
:101AE0004B6A9B1A9BB28342FAD37047004801406D
:101AF00010B5441E00280BD0FA20064980004A6A1F
:101B000092B24B6A9B1A9BB28342FAD3013CF6D243
:101B100010BDC0460048014070B504000D1E5AD0EB
:101B200000220020072128E043B2C6B2002B2FDBA1
:101B30007300D8B25BB2002B30DB4300D8B25BB28B
:101B4000002B31DB4300D8B25BB2002B32DB430009
:101B5000D8B25BB2002B33DB4300D8B25BB2002BB0
:101B600034DB4300D8B25BB24000002B00DA4840BF
:101B70000132D3B2C0B29D422ED9A35C584043B2C9
:101B80004000002BD0DA484043B2C6B2002BCFDA77
:101B90007000484043B2C0B2002BCEDA400048404B
:101BA00043B2C0B2002BCDDA4000484043B2C0B2CD
:101BB000002BCCDA4000484043B2C0B2002BCBDA55
:101BC0004000484043B2C0B2002BCADA400048404F
:101BD00043B2C0B2C8E7002070BDC04670B504ACC7
:101BE00025880A4C2070A170080A2271110AA3717D
:101BF0001A0A2B0A6070E1702572092120006271B7
:101C0000E371FFF789FF607270BDC04618050020C0
:101C100010B5064C30222000054905F059F8302156
:101C20002000FFF779FF3023E05410BD1805002095
:101C300094060020F0B5C64600B5B54CB54DC0229F
:101C40002000296882B003F0D3FD6378022B00D80E
:101C50001CE1A679731EDBB29846E37DAE4F2A2BBA
:101C600052D81A1F052A4FD9032B51D90A3BDBB290
:101C7000202B52D9207E0300083BDBB2882B53D89F
:101C8000642306215843FFF7A5FA0100A348FFF794
:101C9000A1FAA34BA880D8624346312B4BD8B3009E
:101CA000F3185B001A009132FF3292B22B81617EF1
:101CB00008003238642801D85B189BB2AA81282218
:101CC0006B81A37E022053431433EB8102F0AAF907
:101CD0006378002B37D1EE89FA239B009846962132
:101CE000F53BFF3B0093300043468E4A4900FFF727
:101CF000CFFE5023E852A37C002B20D04346BB608C
:101D000002B080BCB846F0BD10223A70032BADD8AB
:101D1000DB00DBB21A000A32E2753B70207E030062
:101D2000083BDBB2882BABD97F4B7D4AEB80D3627B
:101D30004346312BB3D9C82200235200B6E7FA2319
:101D4000DB00BB60DCE7A07F0B2800D8D9E00520D2
:101D500002F068F92023E35C744A7833FF335B00B8
:101D60002B8221239446E35C714A63445B006B82BF
:101D700022239446E35C00226344AB822323E35C8A
:101D8000AB752523E35CFA332B832723E2542832F7
:101D9000A35C053B142B01D90523A3542922A35C82
:101DA000013B092B01D90A23A3542A23E25C511ECB
:101DB000082977D90A22E2542B22A35C463B462B02
:101DC00001D9FF23A3542C23E35C013B632B01D8EF
:101DD00001237B702D22637A5B006B62A37AAB6276
:101DE000E37A5B00EB62A35C013B092B01D905237D
:101DF000A3542E23E35C092B0BD8022B00D183E0E4
:101E00003AD8002B06D0012B09D14A4ABB70137077
:101E100005E000230122BB70FB70464B1A7060790D
:101E2000092858D809233B713F33E8540133E8545B
:101E30000133E8549623EE895B009E4202D20022D1
:101E4000E13BEA54E17E2020FFF7C4F9642180469B
:101E50003000FFF735F9414680B2FFF7BBF94C235C
:101E60000C21E8523000FFF72BF9414680B2FFF712
:101E7000B1F94E23E8522FE7042BD0D101230021E2
:101E80002D4ABB7013702B4A1170C8E7A0236371F1
:101E90009F3BE380294B0126A36000239846E36023
:101EA0002374DAE653019B1A9B009B1A5B006A8934
:101EB000423BDBB29A186A812A89AB769A182A814A
:101EC000AA8B9A18AA83AA899A18AA81144A516CD3
:101ED0000B43536470E700230A213B71FFF7F0F8CE
:101EE0004823EA5CC0B2904200D2E8544923EA5C3D
:101EF000904200D2E8544A23EA5C90429AD2E854D5
:101F000098E702F08FF825E70123FB7087E7C046CA
:101F100094060020000000204C0500201044100012
:101F2000002C0140B80B0000690A00006B030000A0
:101F30005E05000061040020630400200A64006460
:101F400010B5034BC0211A68024803F0B1FB10BD65
:101F50000000002094060020542370B5274C552122
:101F6000E35C012B3BD0635C5A1ED2B2002A23D023
:101F700062540122224D13405222A35472B67F2391
:101F8000EB5C002B26D062B603F0FEFAAA681D4B6C
:101F9000F5321968FF328A4202D256220121A15439
:101FA00000227C216A541A715532A25CA16D013A5B
:101FB00052009B18198170BD06230122104D6354F5
:101FC0007833EA5452227D3BA35472B67F23EB5CF4
:101FD000002BD8D15533E05C04F0D4F9D3E7625C30
:101FE0000132D2B2062A04D97E22054D6354AB5485
:101FF000C2E7034D62541340BEE7C0460000002014
:102000004C050020CC05002001211B4A10B5D368E7
:102010008B43D360FFF7A0FF184C1949A38AE28ACB
:10202000886D9B185B101B185B088B652F23154A66
:10203000D35C002B17D1144A8B6D127853439B0944
:102040009BB28A6D63835208D31A9BB2A383562333
:10205000CB5C002B0DD0226A0C4B9A4202D8236A2B
:102060000133236210BD8B6D227E53439B099BB2CB
:10207000E7E703F07DFAEEE700200040CC05002002
:1020800000000020940600204C0500200F270000CF
:10209000F8B55C23154DEB5C002B0DD000245226C7
:1020A0005C2703E0EB5D0134A34205DD03F048FA51
:1020B000AB5D9842F6D1F8BD72B603F049FA8020C4
:1020C00000210B4AC005D38A9BB29382436A9BB21C
:1020D000D382084B41625962928B0132DA621961F4
:1020E000DA6801310A43DA6062B6E4E700000020F2
:1020F000CC05002000200040F0B5D6464F464646AD
:10210000C0B5C04D82B0AB7C002B56D0BE4FBB7863
:10211000002B00D1E9E0BD4CBD4E2623EB5C002B2B
:1021200000D1C7E18323E28CDB009A4216D354230B
:10213000697CF25C8A4200D112E37F23FB5C002BB6
:102140000CD12A230022E254B24AE38C94465D2249
:102150006344B25C5B009B1A2F3323858323E28C9C
:10216000DB009A421AD2E38C2F2B17D95422B35C8E
:10217000697C9C460123581A844500D1B4E37F232F
:10218000FB5C002B0AD12A230022E254E38C5D324F
:10219000B25C303B5B009B1A2F332385E38C2F2BE3
:1021A0000FD8002323857F33FA5C002A09D0002250
:1021B000FA540122553BE25403E0944C944EE38CD4
:1021C000238530275E23E25DF35C9A4203D9AB7D21
:1021D000002B00D00DE1EF7C002F00D16DE0208DB1
:1021E0001D2800D9F2E0002363862823EB5C9900C8
:1021F000C9188900884200DBF4E02E23E35C002B41
:1022000055D13C33E35C002B51D0EA7C608E9300C7
:102210009B181B012E33834200DB82E12427E35D00
:10222000002B00D126E33389002A00D135E2FA22BF
:10223000D200283300928921774AFFF729FC4023F6
:10224000E0522623EB5C002B00D013E27F226E4F7E
:10225000BB54E97C628E8B005B181B012E339A42C3
:1022600000DC5FE12E2A06D91E23687F216A034124
:102270008B4200D932E24023E55A68494B8AAB428F
:1022800002D240201D0023527B78002B04D014235F
:10229000CB5E9D4200DD1DE2E06C002807DD2F2AA9
:1022A00005D95F49FEF796FF40232818E05202B097
:1022B000E0BCBA46B146A846F0BD3423E35C002B2F
:1022C00000D180E03523E35C002B00D034E1544999
:1022D000A06BFEF77FFF802380B260861B019842CF
:1022E00000D289E14C4B638687E72622AA5C474CE3
:1022F000002A00D196E0464EE28CB07D41008A462D
:10230000FA21890051448A421BDD6A7C904654229E
:10231000B05C8446404500D191E27F23FB5C002BFA
:102320000FD12A230022E254FA22E08C3A4B80B2E9
:102330000093D2002F23FFF7ABFB2085B07D430035
:102340009A46FA225146E38C9200521A93421FDABF
:102350006B7C54219C46735C604699460123181A95
:10236000814500D147E27F23FB5C002B10D12A235B
:102370000021E08CE1540533009380B2264BFFF737
:1023800087FB2085B07DFA2243009A469200D21A3C
:10239000E38C934212DBFA22920094465046E38C7F
:1023A000604483420ADC002323857F33FA5C002AE1
:1023B00004D00022FA540122553BE254BB78002B92
:1023C00000D1FEE6A9E6238D638616E71E2800D11C
:1023D0000BE72823EB5C9A00D21892001100904280
:1023E00000DAC2E00C4AA0230092FFF751FB60869E
:1023F00003E703F083FF03F0ABF800236386663343
:10240000E355FAE6940600204C050020CC05002098
:1024100000000020E8FBFFFFFF0700008000002015
:1024200010270000FA21C64E8900B37DE28C5B00C4
:1024300059188A4211DD54226B7CB25C9A4200D159
:10244000BBE1FA22E08CBF4B80B20093D2002F2375
:10245000FFF71EFBB37D20855B00FA22E18C920022
:10246000D21A914215DA5423697CF05C533B5B1A13
:10247000984200D184E12F23E08C0021009380B2A8
:10248000B04BFFF705FBFA22B37D92005B0020857D
:10249000D21AE18C914291DBFA2189008C46E28CC0
:1024A00063449A4200DD89E70023002223852F330D
:1024B000E25483E78323E28CDB009A420FD3542259
:1024C0006B7CB25C9A4200D1A3E19F4AE38C9446B4
:1024D0005D226344B25C5B009B1A2F332385832308
:1024E000E28CDB009A4212D2E38C2F2B0FD95423BB
:1024F0006A7CF15C533B9B1A994200D102E25D2257
:10250000E38CB25C303B5B009B1A2F332385E38C5A
:102510002F2B00D955E60023002223852F33E254C8
:102520004FE68A4F4223E35C002B2CD0052B27D8A3
:10253000874A9B00D3589F46726E336E2F21208DA1
:102540000092804AFFF7A4FA01008248FEF742FE9B
:10255000E97E4908FEF73EFE238DE0862E2B00D94A
:10256000B5E66786B766A76347E6A0231E210093FA
:10257000713BFFF78DFA6086208D36E601F0C0FED4
:1025800042230022E2542B7D002B3BD14022A35258
:102590002433E35C002B00D189E02623EB5C002B85
:1025A00072D07F23FB5C002B75D0BB78002B00D151
:1025B000CBE18323E28CDB009A420BD2E38C2F2BFE
:1025C00008D95D22E38CB25C303B5B009B1A44224D
:1025D0002F33A3528323E28CDB009A4200D3D3E152
:1025E0004423E35A5C4A934200D8ABE104F038F844
:1025F0007F23FB5C98464AE02F2800D9FDE5302375
:102600006386FAE52423E35C002B76D0E97C7F2304
:10261000FB5C984655233C22F35C013B53434F4AF5
:10262000128A9B18B42298B21BB25200934200DB6C
:1026300032E1233AFF3AA3520200B423773212B2B6
:102640005B009A4200DB2DE1213BFF3BE25202009E
:10265000B423EF3212B25B009A4200DB18E11F3B59
:10266000FF3BE252012901D12E23E15440230022F5
:10267000E2520CE0EA7C354F93009B181B01628EFE
:102680002E33934200DB4DE77F23FB5C98464346A5
:10269000002B00D00BE6628EE4E5FA22D200009215
:1026A0002F21284AFFF7F4F94023E052C9E5012120
:1026B0001632B15423622B7F002B00D036E17F23EA
:1026C000FB5C002B00D151E12623EB5C002B00D0FA
:1026D0006BE7ECE59DB24023E552DDE540217389CF
:1026E000655A9D4201D21D006352B389AB4200D3AB
:1026F000C3E540211D006352BFE556220121B154BC
:1027000027322362BB542B7F9846002B00D110E167
:10271000E97C002900D07AE7012B00D077E7292354
:10272000C822EB5C5343843AA3520B4A934200D82D
:1027300037E103F095FF7F23FB5CE97C984669E76E
:1027400000000020FF070000E8FBFFFF4C05002011
:10275000B06D000800879303CE07000080000020C2
:102760000021012021857F3178542930205C002808
:1027700000D1F3E40120821AF25400237B54E0E4F8
:102780005020B36D305A984200D39EE0A38DC72BE2
:1027900000D99AE000230122984623625633F2546E
:1027A000023BF15402F0D4FE2F234246E254FA23B6
:1027B000B27D9B0052009A1A5DE65020B26D305AED
:1027C000904274D2A28DC72A71D80122D31A542202
:1027D000B35400239846533A23625633F25402F01E
:1027E000B7FE2F234246E254FA239B009C46B17D5C
:1027F0004900614425E6002020857F303B54293381
:10280000E35C002B00D1C3E56346735400233B54C3
:10281000ADE55021B26D715A914250D2A28DC72AB6
:102820004DD80122D31A54220027B3545623533AC9
:10283000F254276202F08CFE2F23E75445E6012074
:1028400023857F23F8542930205C9946002800D145
:1028500077E563460120C01AB0544B460022FA5473
:102860005FE501F0DBFC8BE601F0AEFD88E601F0F0
:1028700079FD85E603F042FD5623F35C002B2DD055
:1028800024230122E2547389608EE387EA7CCAE440
:102890004A227938A052E5E646236938FF3880B2EB
:1028A000E052C9E603004822F13BA352CFE62E22B4
:1028B000A25C002A89D1FA239B00E384C1E52E2281
:1028C000A25C002AADD1E284FFE52E23E35C002B5D
:1028D00000D05FE7FA239B00E384CCE5E35D002BA7
:1028E00047D002F045FECBE7002020857F303B54E7
:1028F0002933E35C002B00D150E40023B1543B5456
:10290000FFF741FC5021B36D715A994214D2A38D47
:10291000C72B11D8562301210027F154023BF25452
:10292000276202F015FE2F23E754E8E503F098FE36
:1029300033E603F0E3FC69E62E23E35C002BE9D1E8
:10294000E384DCE503F09AFC9EE6FA20E18C80004B
:1029500089B2FFF7BBF8FA2344229B00C3189BB24D
:10296000A352BA78002A00D13CE622E603F0C6FC66
:1029700013E6FFF7F1FA0E4B0E4AB3658023DB0531
:102980005A620123E355ACE70B4AE38C94465D227F
:102990006344B25C5B009B1A44222F339BB2A35268
:1029A00020E603F06BFC7F234246FA54E97C31E6D3
:1029B0001027000088130000E8FBFFFF70B55025CA
:1029C0000F4C635D012B12D05023E35C022B02D02D
:1029D000FFF792FB70BD8023606D5B0298420BDABB
:1029E00080B2FEF73BFF50230022E254F2E7FEF7ED
:1029F00001FD00236355E7E70248FEF72FFFF2E7EA
:102A0000CC050020FFFF0000F8B5CE464746542312
:102A100080B54E4D4621EA5C4D4C002A1ED1B420B3
:102A2000635A400001331BB2834200DB73E0635200
:102A30004821B420625A4000013212B2824200DBC7
:102A4000002262524A21B420625A4000013212B27E
:102A5000824200DA6DE00022625214E0625A013ACA
:102A600013B2120400D566E063524821625A013A5B
:102A700010B2120452D460524A21625A013A10B282
:102A8000120454D46052FA21324A5B00985E324BF1
:102A90002D269846DB8AC900C318A888914658435A
:102AA000FEF798FB2D4F0A21BB5D5843FEF792FBC2
:102AB00080B203F017FB4823E35E4A465B00985E52
:102AC0004346FA21DB8AC900C318A8885843FEF799
:102AD00081FBBB5D0A215843FEF77CFB80B203F00B
:102AE00007FB4A23E35E4A465B00985E4346FA21B1
:102AF000DB8AC900C318A8885843FEF76BFBBB5D8F
:102B00000A215843FEF766FB80B203F0F7FAC0BC17
:102B1000B946B046F8BD0023625289E76822FF3209
:102B200062524A21625A013A10B21204AAD56822AE
:102B3000FF326252A7E76823FF3363524821625A8B
:102B4000013A10B2120400D495E7E7E70000002034
:102B5000CC050020D8000020800000209406002032
:102B60008021C9054B6A70B5234C9BB2E3820023D8
:102B7000224D4B62E08AAA6D214E53009B181B1810
:102B80009B08AB65AB6D32785343AA6D9B099BB232
:102B900052086383D31A9BB2A38302E0236A042BF7
:102BA00003D94A6AA38B9A42F8D3A38B154A9BB2E6
:102BB000D362FFF7D1F900237C222621B3540132DE
:102BC000B354236A104A01332362537F525C134388
:102BD00004D1AA6DB3689A4208D370BD236A132B3F
:102BE000FBD9FA23AA6DDB009A42F6D856230022BD
:102BF000EA5402F0BDFCF0E7CC0500200000002004
:102C00004C0500200020004094060020F8B5402329
:102C10005822CE46474660258F4C80B5E35A615D09
:102C2000A385A35A0133A3520232A35A0133A352FC
:102C30000232A35A0133A3520232A35A0133A352E0
:102C4000223AA35C0B4304D16121605C002800D0D0
:102C5000EBE0824EF17F00290ED06820804F235A8E
:102C60003A7E0133013A521891009BB28A182352DE
:102C70009200934200DD9AE02E23E75C002F5AD1A8
:102C8000784D2833EB5C002B5DD1774B98465E2363
:102C9000E25A142A12D96B220121A1540022E252D5
:102CA00043465B78002B00D1E6E02423E35C002B55
:102CB00000D09FE1737F002B00D171E143461A7968
:102CC0005C23E15A914200D877E00022E252236A65
:102CD000E28F952B00D998E048216B5C6048DBB20D
:102CE0004354A18D891A994202DDD11889B2A18578
:102CF000A18D511A8B4262DAD31A9BB2A3853C2371
:102D0000E35C002B5FD17F234246D35C002B00D1D4
:102D10006CE04423ED88E05A54496843FEF75AFAC0
:102D20006E23281880B2E052A38DE387504BDD62FA
:102D300058639863D8637022A35A0133A352C0BC6E
:102D4000B946B046F8BD2423E35C002B9DD002F0C9
:102D5000FFFB02F0F5FB5223EB5C002B00D02DE1D2
:102D6000414B9846002800D03DE17D2241469B5CC6
:102D70000133DBB28B542A3AAA5C9A4201D27C23FB
:102D8000C8542379002B00D081E75233EB5C002B31
:102D900000D178E142467C23314FD35C7A7E9A425F
:102DA00000D374E701232371FFF7DAFE6FE76A238C
:102DB0000122E254002323525EE7E38FA3853C23E4
:102DC000E35C002B9FD02423E35C002B9BD0638E1D
:102DD0002F2B98D9FA21A08DED88C9006843FEF702
:102DE000F9F96E23013080B2E0529DE7337F022B68
:102DF00000D1BEE0FA21A08DED88C9006843FEF73E
:102E0000E9F96E2380B2E0528EE7952A00D863E795
:102E1000FA2321685B00994200D9E1E04A23482166
:102E2000EB5C0F48DBB243545BE7208D002800D0F9
:102E3000C1E06226A35B0F4F01339BB2A353BB4299
:102E400000D806E76423E35A1E2B00D929E1A053DA
:102E50006054024EFEE6C046CC05002094060020D9
:102E600080000020000000204C05002030F8FFFF0B
:102E7000002C0140204E0000737F002B00D18FE01A
:102E80002423E35C002B00D118E7A64F396BBA8BE3
:102E90008C46AB6D396C9B1ABA6A3B625A436244EA
:102EA0003A638A4201DD0A0039634942914201DDF9
:102EB0000A003963B96BF86A591A4143786ABB63EF
:102EC00043435B189B187A6C7963FB63934201DD83
:102ED0001300FA6352429A4201DD1300FA63E26C76
:102EE0009446914A6344934200DCD5E0E264342383
:102EF000E35C002B00D1E1E6A96F626D8C4688216E
:102F0000E38E6958D31A2A6FAB665A436244AA67A4
:102F10008A4201DD0A00A9674942914201DD0A00A7
:102F2000A967802029586F6F2B50E86E591A794392
:102F300043435B189B188C22E9678421AA586B5085
:102F4000934201DD13006A5052429A4202DD84230B
:102F5000EA501300A26B9446744A6344934200DC27
:102F60008CE0A263236A632B00D9A7E60023AB673A
:102F7000A4E63A33E35C002B00D13BE7022003F0E8
:102F800001FAFA21307BED88C9006843FEF722F987
:102F9000830018186E234000283080B2E052C3E648
:102FA0003423E35C002B00D188E62423E35C002B70
:102FB00000D183E6A0E76222A3524AE65C4B984622
:102FC000002810D07D2241469B5C0133DBB28B543C
:102FD0002A3AAA5C9A4200D3D3E67C23CF54D0E6A7
:102FE000AC3BFF3B1BE77C2241469B5C0133DBB2E1
:102FF0008B54C6E66C23E35E2C22C820B25C50439F
:103000002A6B181A9446AB6A2A6C434363442862BD
:103010002B63934201DD13002A6352429A4201DD81
:1030200013002A63AA6BE96A821A4A43696AA86391
:1030300048438018C0186B6C6A63E863984201DDEE
:103040001800EB635B42834201DD1800EB633949F2
:10305000FEF7C0F8334FBB8A181A2B8900B2B8822A
:10306000984201DA18B2B882FA23DB00984200DDF8
:10307000BB82737F002B00D008E738E7002B00DA13
:103080000023A3636EE742467C23264FD35CBA7EBF
:103090009A4200D3FBE585E6002B22DC0023E364A3
:1030A00025E7FA2001238000A354FEF715FD002236
:1030B000FF21002002F048F9635D1F4E002B03D171
:1030C0002423F35C012B0ED001F0E2F8184B984654
:1030D0004246DB789278134300D0BBE52622B354F6
:1030E000B8E5E36403E7B9216533E75A49003800DE
:1030F000FDF7E6FFB92360555B0000259F42E5D34D
:103100000E4B602799460E4B984601F0C1F864209B
:10311000FEF7EEFC4B4642461A60E35D0135AB42DA
:10312000F3DCD3E78000002060E31600F05838019C
:103130004C050020102700009406002000300040BD
:10314000AAAA0000F0B5DE464E4657464546E0B511
:1031500085B002F085FBFE231B01BC4A1968BC4EFA
:10316000914205D1BB4A5968914201D100F05CFC03
:1031700002F0D4FE02F0D8FFFEF75CFDB64FFB78FC
:10318000022B04D13B79142B01D100F08AFC0223DD
:10319000FB7012333B71C021113B380032687B70E9
:1031A00002F086FA7B7C013B5A1E93415422B354B1
:1031B000B388F3803B7D002B00D1FB742623A74A04
:1031C000FB5C9046002B15D0FA239B004B22B38367
:1031D0000123B3547B820023BB82BB7533894146F4
:1031E000323333814346013A9B5A32338B527389CF
:1031F0003233738100217D20002202F0A5F800F017
:10320000C7FF64230022964CE25202F04DFC954B1E
:10321000954A1A6001F0B2FF3523E35C002B02D01F
:1032200034230122E25402F03BF8904B904D994632
:10323000628923899B18A2899B18E2899B18228A9C
:103240009B18628A9B1804335B106365236A042B06
:1032500000D91EE2BB7C002B00D18DE20323424645
:10326000537693767F4B804A1A607B7D012B00D189
:103270001AE2022B00D124E270237E4AE35A9342E1
:103280000CD93C229246A25CD1B28B46002A00D0D7
:10329000A8E3794A934201D900F0E4FB58239A4607
:1032A0005246764BA25A9A420DD96C23B421E05E65
:1032B00049000004FDF78EFF636F52469C460023D1
:1032C00060446067A352FA23226A9B009A4200D8A6
:1032D0001AE230220021238DA154226A642A02D9E5
:1032E000C72B00D851E2FA7C002A02D09F2B00D8CD
:1032F00017E27822A25C002A00D1FFE1C822520026
:10330000934200D214E20321606DFDF763FF7E2338
:103310004A46D35C2060002B03D0236A0A2B00D9D5
:1033200060E26B78002B00D1B4E0B36D3C2B00D889
:10333000B0E0C221524A8900535852480340C42089
:103340005350802180001358C9051B021B0A0B43F0
:10335000C3211350FF20890053588343BF380343D0
:1033600053506A239A46E35CDAB29346002B00D0AE
:10337000ADE0AB79002B00D00BE26B23E35C012BBB
:1033800000D1BDE02E23E25C00239A46EB75002AB3
:1033900000D045E1616D3C48FDF71CFF2423E35C50
:1033A0000A21584380B2A880FDF78AFE4B23F35CC4
:1033B00080B22883002B00D058E2FA234246DB007B
:1033C00053822B226B88B95C1BB28B4200DD3BE23F
:1033D000236A632B00D9C3E1FA23B26D5B009A42E2
:1033E00000D8BDE10C22993BFF3BF254B36D312B69
:1033F00002D85C230222F2542F23FB5C002B00D066
:1034000045E28023DB055A6A204B9A4200D80FE739
:1034100024239B46E35C9A46012B00D008E7302228
:10342000A35C0133A35402F093F856235246F2549E
:10343000638E2F2B04D800235A46A354144BB36534
:1034400000232362FFF78CFBF2E6C046DAE325593E
:1034500000000020D963B84E9406002080000020B0
:10346000CC05002000300040AAAA00004C05002036
:103470004C06002010270000409C0000204E000059
:1034800000E100E0FF00FFFFC0270900C8AF000017
:1034900088130000C220C34B80001A58C249114053
:1034A0008022D2010A43C4211A50FF2089005A58B1
:1034B0001202120A5A5004395A5882435A506A2347
:1034C0009A46E35CDAB29346002B00D151E7636F72
:1034D0006C221B0C9B4666216888AB88A25A615AF5
:1034E00040B200935B46FEF779FB0A2003F038FAFE
:1034F00000235246A3546B23E35C012B00D041E729
:1035000001F0A0FCA94AAA49936828890B4004212C
:103510000B439360A74BA8491B889B46A74B584376
:103520009A46FDF7CDFD5B46C31A64205843A44B71
:1035300019885B46C91AFDF74DFE53461E3000B28E
:1035400068816880A8899F495843FDF743FE424639
:103550004C23D35A64215843FDF73CFE6622A15AFE
:10356000CB005B1AC018C310A3529A464B461B7C73
:1035700078205A004A44918A01338B464946085ABA
:10358000DBB29082CA6894465A466044801AC8608A
:103590004A46312B00D9002313743221FDF790FDE8
:1035A0007A234A46A421D052844B0004000C28619F
:1035B00089005843FDF70EFE03B2020400D59BE1DB
:1035C0006C22A3522423FB5C012B00D19CE1022B33
:1035D0000BD132223B7A5A4353461B041B0C9A42AE
:1035E00000DC9BE1AB8A0133AB822E23E25C9A467E
:1035F0009000801803011B1A58011B1872489B0089
:1036000084465B42A98A6344994200DD8CE16B23C6
:103610000021E15400239A46EB75002A00D1B9E657
:10362000638E302B00D887E03C22A25C002A00D1B8
:1036300082E0313B572B00D997E1AB7E002B00D0C5
:10364000FFE1FFF7E1F9FB7E604819009A46FDF7BC
:10365000C1FD628E514603905D489346FDF7BAFD69
:1036600030217822039B00905846FEF711FA502330
:103670009A464346524698520004000CFEF72CFA34
:10368000434652469620995A8000FDF7A3FDA88034
:10369000CEE502234246537693764E4B4E4A1A604D
:1036A0007B7D012B00D0E4E5B288B06D5308009219
:1036B0006021C822FEF7ECF9F0807B7D022B00D060
:1036C000DAE52368F92B06D82368642B03D922682E
:1036D000D3009B1AF3802368632B05D82368002B43
:1036E00002D0AF239B00F3802368F92B03D8236813
:1036F000002B00D0C0E5394BF380BDE5952B40D8B9
:103700005E236422F254FEE5238D002B00D0E4E515
:103710003022A354226A642A37D8FA7C002A00D1C6
:10372000E7E530220021A1544832A25C002AE5D00E
:1037300030230022E254E6E50123AB763B7F9A4634
:10374000012B00D1AFE0022B00D1C2E00022244BBC
:103750005A639A63DA6302F0D1FD0023AB8067E518
:103760000C23FA222068642100935200093BFEF7E3
:103770008FF95C23F05439E604234246537693765E
:1037800070E55E230A22F254BDE530220021A154E7
:10379000A9E5FEF73DFA312003F0E2F85B46AB7194
:1037A000EBE5C04600E100E0FF00FFFF0024014020
:1037B000E8FFFF7FA875FF1FB80B0000E40C0000B6
:1037C000CA75FF1FFF0F000010270000581B0000E4
:1037D0002A03000000300040AAAA0000D60600001C
:1037E000002C01402168E06FFEF770F923685B0848
:1037F00098421CD9FA232268DB009A4217D2002390
:1038000023622B7801332B70BB7C002B16D1638E87
:103810002F2B13D924230022E25456230122F254E1
:10382000236A642B00D9FCE073895B08E3877E235D
:1038300000224946CA542368E36772E5FA23B26D51
:103840009B009A42E9D9E5E742464E23D35A0A0043
:103850005B089A46012368880A32009300B25346F7
:103860000A39FEF715F943465882B1E5B38B4C216E
:103870009C464E23F25A715A92464246D35A5246B9
:1038800000936346FEF704F94346588299E51723EF
:10389000FA22A08D6421009380B20A3BD200FEF789
:1038A000F7F82076ADE52833F85C9F335843843B26
:1038B000E052F388824958439B46FDF78BFC6E2308
:1038C000584480B29B46E052632841D802F0C8FEBB
:1038D00043E7022002F056FDFA213B7BF088C90045
:1038E0005843FDF777FC83001B18764A5B002833AA
:1038F00053639363D36330E76C230022E2522423A3
:10390000FB5C012B00D062E65F33E35C328B5A43F1
:1039100053461B041B0C9A4200DD63E6AB7D002B73
:1039200000D062E6AB8260E60123AB7500239B46C4
:10393000638602F0E3FC01F00BFE002224235946CB
:10394000E2544033E152283BE2545346E25C5EE6E7
:1039500002F094FC5B46E25A5A4B51465A639A6312
:10396000DA637F234A46D154F7E60123AB76FFF7AB
:103970004BF8638EC82B05D946235246E252424685
:103980000A33D35250234246D05AFEF7A5F84623B5
:10399000E35E002B00D04BE42E222421A3542D3AC9
:1039A000625432317254484AB26522602168E1673C
:1039B0008021C9054A621422494622626B328B5427
:1039C00042465233D25C0333F2547B7F002B03D048
:1039D0004A234246D35AE387FEF7BEFA02F094FB2D
:1039E000FFF726FC02F08AFC00255346E5542533F8
:1039F000E5540333E552334B65865D639D63DD63B8
:103A000002F08AFB802229005200304803F069F955
:103A1000BFF34F8F2E4B2F4ADA60BFF34F8FC04654
:103A2000FDE72D4B2360FFE61B7B2B2B44D0352B72
:103A30003ED01F2B01D0FFF79BFB284B3360FFF7D5
:103A400097FB0121264AD3688B43D36001F080FDA8
:103A500052461C4B5A639A63DA6302F045FE5346A2
:103A6000AB76EEE502F04AFC5A465346E254612337
:103A7000E2540333E252134B62865A639A63DA6369
:103A800002F04AFB802200215200104803F029F97D
:103A9000BFF34F8F0E4B0F4ADA60BFF34F8FC04614
:103AA000FDE77B78022B01D9FFF77CFBFFF76FFB6B
:103AB0000C4B3360FFF75CFB0B4B3360FFF758FB9D
:103AC00030F8FFFF002C0140282300008007002071
:103AD00000ED00E00400FA0588130000007C0008F7
:103AE0000020004000F8000800F80108F0B5684C1C
:103AF00083B063682268981A664B0100C218664B4F
:103B00009A423BD80023654E654D33802B78002BBD
:103B100049D06B78002B17D1AB78002B00D19CE0FB
:103B2000A888604F01333988AB70FDF7CFFF32288A
:103B300000D872E000232B703B88AB806B78002BA1
:103B400009D061682368C91A574B994259D9AB7992
:103B50004B2B00D986E0002354493380544BA8688E
:103B60001A880968821A8A4214DC1A88121A914249
:103B700016DA1A88511A89B219800FE000224D4BCB
:103B80001A80474B98684A4B48491A880968821A34
:103B90008A42EADD1A88511889B2198003B0F0BD53
:103BA00080B21880FAE7444B9C7C002C0FD0434B2A
:103BB0001A88904219D8424B1988FA239B00009327
:103BC0000023FDF765FFA86000233380DBE7354B5A
:103BD0001A883B4B19883B4B00932F23FDF758FF66
:103BE00030283DDC0020AC60EEE72E4B511C1C88D9
:103BF000FA23DB0000932200334BFDF749FFA86056
:103C0000E2E72F48AB7904880133E200121B511818
:103C1000DBB2C908AB7101809AE739882268636812
:103C20009B1ACA00521A9B18DB08AA789BB23B80E9
:103C3000322A00D881E7254A193B94469BB23B8043
:103C40006344DA0FD31821221B495B108B540123E4
:103C50006B7000F055FB3B886FE780B2A88060E78F
:103C6000A860B1E7164A00241388134919339BB2A0
:103C70001380174A2C7094466344DA0FD31820221D
:103C80005B108B54FEF75CF9AC7100F06BFB62E7E4
:103C900080070020DFFCFFFF760500003C060020C7
:103CA0005407002012000020E1040000BC030020A3
:103CB000F2050020300600209406002014000020A9
:103CC00010000020FF070000E90300002AF9FFFFB1
:103CD00012FDFFFFF0B54F464646D646624DC0B5D1
:103CE0002A00002600200027604B614C9C469C80E7
:103CF00008CA7C3511688B4206D0CB1AA34201D288
:103D000001279CB20126C01804320B009542F1D164
:103D1000002F35D063469C80002E14D0554D564957
:103D20002B784009C860012B2CD0544A1678012EFC
:103D300032D0002B02D11678002E42D0E0BCBA4619
:103D4000B146A846F0BD4B4D4B492B780020CE60C4
:103D5000012BEAD1631E022B69D9231F042B16D82D
:103D600001230B740721464A2B701370454A1170CA
:103D7000202261468A71444A1370404B1B78DDE76C
:103D80003B4CC9E7631E022B4BD83B284FD93B4A1B
:103D90001678F3B2012ED1D126003C4FC93EB6B2FF
:103DA000BE42C6D8384E364FB0460126B2461670CF
:103DB0003E363E7002276646B77146465746377014
:103DC000B7E7661E022E0FD83B28B7D80B740E211A
:103DD0002B4A137001332B4A2B701170202261463D
:103DE0008A71294A1370A9E7231F042B09D8632875
:103DF000A4D80123224A0B7413700721214A2B7087
:103E0000EBE7C93C214BA4B29C4297D801233F2148
:103E100013701B4A1170022261468A711A4A13708C
:103E20008CE7231F042BB2D86328B0D898E70E265E
:103E3000144A0023167020226646114FB271124AAE
:103E40003B700B740133137090460C4A2B7016783C
:103E5000F3B2012E00D071E70C4EB1462600C93EE8
:103E6000B6B24E45A1D969E780070020BC03002007
:103E7000204E00004E050020540700204F05002072
:103E8000C6030020C70300202D060020564D000069
:103E900070B5554C2378002B03D0544B1B78002B66
:103EA00008D1534B1A78002A00D171E01B78012BFE
:103EB0000AD070BD4F4B1B78002B56D001F05EF935
:103EC00002224D4B1A70F4E7484B1B78002B52D15D
:103ED0004A4D2B78012B76D0494B1B78012B68D0AB
:103EE0002378002BE5D12B78002B1ED0454A537C3C
:103EF000072B1AD844490988052916D943480133A4
:103F0000C16F0068DBB2091A506989B28446614406
:103F100053745161082B08D1CB08C9099BB289B2EF
:103F20003B485C18591A048111833A4C20880028B8
:103F300036D0394BDB79002BBBD1334A00261380B6
:103F4000364B9842B5D92F4D698BFDF7BFFD32280E
:103F500047D82B7F0133DBB22B77322B02D96B781A
:103F6000002B3AD023886B83A3E701F04BF90122A1
:103F7000214B1A709DE71F4B1B78002B0DD0284B4F
:103F80001888FDF76BFCFDF735FA01F0F7F890E7BC
:103F9000FFF7A0FE01F0F2F88BE701F033F988E7B4
:103FA000184B1B78002BC4D1174A13880133138098
:103FB0007FE701F06DF9164B002809D003229A71B2
:103FC00001F0DCF88CE7FDF715FA01F0D7F883E78C
:103FD00002229A71FFF78AFDF2E700F0F5F901235A
:103FE0002B702E77BEE7C046080600204D06002045
:103FF0002D0600207C0700201C0600204E05002016
:104000004F050020540700203006002080070020C4
:10401000BC030020F405002094060020DC0500000D
:1040200020060020021C0B2800D90B2253009B18ED
:10403000014A13707047C04671070020F8B5DE468C
:1040400057464E4645460320E0B502F09BF9434BE8
:1040500000279946424B434D9B46434B9A4638E0D6
:10406000002800D16EE0FA231B019C463F4B44011F
:10407000984609234246241AE400241A64449362B1
:1040800021003B48FDF71CF801003A48FDF7A2F873
:104090004346D862384B39491B785843FDF79AF8A4
:1040A000434658639863D8633802C01B801934496B
:1040B0006043FDF705F80004000CFDF719FD00272B
:1040C0003323304AD05CEF2819D82F4B0235AB424E
:1040D00025D05B4652461A6000234A462E7813804C
:1040E0003300687803431AD0FF2EB9D1002829D0B5
:1040F0003323244A0137D05CFFB2EF28E5D90022F0
:104100001A4B02355A639A63DA63FF231B1A98002D
:10411000C0184000FDF7ECFC1B4BAB42D9D102F0BC
:10412000EDF800231949114A09889362D1624A4681
:1041300013800B4B0C4A1A60F0BCBB46B246A94632
:10414000A046F8BD0022094B3802C01B5A638019F3
:104150009A63DA63FDF7CCFC0027B1E73C06002048
:1041600000300040C8060020AAAA0000002C014030
:104170008096980000A8610071070020690A00007D
:10418000F82A0000940600204407002004000020C4
:1041900010B572B6032002F0F5F83023194AD35C4B
:1041A000FF2B07D0FFF74AFF174B1A88174BDA622D
:1041B00062B610BD154C164B0320E362154B1B78FD
:1041C0006363A363E36302F0DDF83723C820A362CF
:1041D000FDF78EFC052002F0D5F82823C820A36245
:1041E000FDF786FC062002F0CDF81923C820A36253
:1041F000FDF77EFC02F082F80023074AA3621380D9
:10420000D2E7C0469406002004000020002C0140A4
:10421000690A0000710700203C06002070B5154BAC
:10422000154CE36272B63C23144D154E01202E60EE
:10423000A362144B1B786363A363E36302F0A2F8E9
:104240004B20FDF755FC50234B20A362FDF750FC9B
:104250005A234B20A3622E60FDF74AFC02F04EF871
:104260000023094AA3621380084B1B88E36262B6ED
:1042700070BDC046690A0000002C014000300040BB
:10428000AAAA0000710700203C06002004000020BC
:1042900010B572B6134C144B144AE362144B03204E
:1042A0001A605023A362134B1B786363A363E36319
:1042B00002F068F86420FDF71BFC46236420A3622B
:1042C000FDF716FC28236420A362FDF711FC02F021
:1042D00015F80023084AA3621380084B1B88E36289
:1042E00062B610BD002C0140690A0000AAAA0000B5
:1042F00000300040710700203C0600200400002030
:1043000010B5114B114C0220E3623223A362104B13
:104310001B786363A363E36302F034F89620FDF730
:10432000E7FB0C4A0C4B96201A601E23A362FDF794
:10433000DFFB01F0E3FF0023084AA3621380084B70
:104340001B88E36210BDC046690A0000002C0140D2
:1043500071070020AAAA0000003000403C0600209F
:104360000400002010B5114B114C0220E3622823F9
:10437000A362104B1B786363A363E36302F002F84C
:104380009620FDF7B5FB0C4A0C4B96201A60502383
:10439000A362FDF7ADFB01F0B1FF0023084AA36261
:1043A0001380084B1B88E36210BDC046690A0000F9
:1043B000002C014071070020AAAA00000030004034
:1043C0003C06002004000020F8B5134D134BEB62AF
:1043D00072B67724124B134F1B78134E6B63AB638B
:1043E000EB63142120003E60FCF7F4FE01F0CAFFED
:1043F00063100A330A20AB62023CFDF779FB631CB1
:10440000EFD101F07BFF0023084AAB621380084B19
:104410001B88EB6262B6F8BD002C0140690A0000FF
:104420007107002000300040AAAA00003C060020CE
:10443000040000200D488546002103E00C4B5B582A
:10444000435004310B480C4B42189A42F6D30B4AA6
:1044500002E0002313600432094B9A42F9D302F0C0
:104460000BFC02F011FCFEF76DFEFEE700400020A1
:10447000806E0008000000201404002014040020B6
:10448000A0080020FEE700008268030010B50120AC
:10449000D20710D48C684A68D8682243CC6809686F
:1044A0002243054C204002430020DA601A69920042
:1044B00092080A431A6110BDC73FFFFF82680300DC
:1044C00010B50120D20715D4DA684868920212D4D8
:1044D0000C4CDA6822400C6822438C682243CC687A
:1044E00022430C69496922430A43DA609A6A1043FD
:1044F0009862002010BDF028EAD1024CDA68224010
:104500000C68EBE73CC2FEFF0368020010B5012017
:10451000002B10DB4C680B68106823438C68234326
:10452000CC6823430C69496923430B43024901408A
:1045300000200B43136010BD0F7C00FEF0B5DE467B
:1045400057464E464546E0B50A684B6883B0002A98
:1045500000D172E09C46012301245B4263449846EB
:10456000A34600230AE00E69C56874434E463540F1
:104570002C43C46014000133DC4041D05C4615007C
:104580009C4025402242F5D02C006C436700BA467F
:10459000A2445746FF43B94657460668BE4367469E
:1045A00067433E4306604646012EDCD88668B24625
:1045B0008E685746664301964E4637403E00019F3F
:1045C00037438760C6684F46B2460E696643019618
:1045D000564637403E00019F37436646C760022E6D
:1045E000C8D1FF2D1DD86443056A2601361BB5438B
:1045F0004E69013374432C4304621400DC40BDD186
:104600004346012B05D84368C96893434A431A437C
:104610004260002003B0F0BCBB46B246A946A046AB
:10462000F0BD2D0A6D436D43446A2E01761BB443E1
:104630004E697543254345629CE7013B9846DFE799
:104640003823214A70B5916804000B40082B32D002
:10465000102B32D10320D36818400338431E9841F1
:104660001A4B40429C461840D368D1685B04490607
:104670005B0ED5686044490F58430131FCF720FDBB
:10468000690F0131FCF71CFD03001F200E4D236054
:10469000AA680F491205120F920051580140CB40F1
:1046A0006360AA680B495204520F920052580240AC
:1046B000D340A36070BD054BE7E71268064B920438
:1046C000520FD340E1E7C0460010024000127A00CA
:1046D000186E0008586E00080024F400030010B59E
:1046E000032821D000200C2B00D010BD6C4A6D494E
:1046F000506D0340C020000303438B426DD06A49D4
:104700008B4254D069498B425AD0382391680B4070
:10471000082B00D1A2E0102B00D1B0E01368644850
:104720009B045B0FD8402FE0C0225D4C9202616D6C
:1047300001400A435F498A4259D05F498A4279D091
:104740005E498A4255D03822A1680A40082A00D121
:1047500084E0102A7CD1E06818400338431E984159
:10476000574B40429C461840E368E168E468604467
:104770005B0449065B0E490F01315843FCF7A0FC6E
:10478000610F0131FCF79CFC1F21454B4D4C9A6891
:104790009B681205120F920012595B040A40D04028
:1047A0005B0F494A9B009B580B40D8409DE7D36D57
:1047B0000222100018401A4297D08020000294E78D
:1047C000382391680B40082B68D0102B48D0136811
:1047D00037489B045B0FD84087E71268802310009E
:1047E000DB0018401A4200D17FE731487DE722689C
:1047F000F4E73822A1680A40082A4FD0102A21D1B4
:10480000E06818400338431E98412D4B40429C46B7
:104810001840E368E168E46860445B0449065B0EA5
:10482000490F58430131FCF74BFC610F0131FCF794
:1048300047FC5AE702221000E36D18401A4200D1EB
:1048400053E7BAE723681A489B045B0FD8404CE74C
:10485000236817489B045B0FD84095E7184893E7F7
:104860000320D36818400338431E9841144B40423C
:104870009C4618406044D368D168D468CDE70320D3
:10488000D36818400338431E98410D4B40429C4664
:1048900018406044D368D168D46869E7084824E7C1
:1048A0000010024008000C000C000C0004000C007A
:1048B0000024F400020003000300030001000300D1
:1048C00000127A00186E0008586E00081D4A03682E
:1048D000904226D08022D205904219D01A4A9042A6
:1048E00016D01A4A904217D0194A90421DD0194A40
:1048F00090421AD0184A904217D003608B68C36266
:104900000B8883620122436913434361002070478F
:10491000702293434A681343104A1340CA681343F2
:10492000EBE7702293434A6813430C4A1340CA686A
:10493000134303608B68C3620B8883620B7C036341
:10494000E0E7C046002C0140000400400020004089
:10495000004001400044014000480140FFFCFFFFCF
:10496000802370B55B01994200D1E1E041D8102964
:1049700000D10AE180235B00994270D1016AA14E07
:10498000A14C31400162036A4168C5692540146841
:1049900025439E4C1C4013691B022343546833403B
:1049A00024021C439A4B984208D09A4B984205D057
:1049B000994B984202D0994B984213D1984B994EFB
:1049C0001C4053690E409B022343974C234094683C
:1049D000A4021C4393691901944B31431940D369D4
:1049E0005E013143D3684160C561C3630462002046
:1049F00070E080235B02994200D16CE080235B036E
:104A0000994266D1016A8A4D8A4C29400162036A43
:104A1000416D2140146824020C43874919401369F1
:104A20001B050B4351682B4009050B43784988420D
:104A300008D07849884205D07749884202D0774922
:104A4000884206D1456891697C4E890235402943E8
:104A50004160D2684465C265036200203AE00129E2
:104A600037D1036A684E8B430362036A44688569E1
:104A70003540166835430226B343166933438B43EA
:104A800051680B436249884208D06249884205D088
:104A90006149884202D06149884213D108218B4381
:104AA000190053699B000B4304218B4391688900D3
:104AB0000B4354490C4091690C4354490C40D16953
:104AC00049000C43D2684460856142630362002060
:104AD00000E0012070BD016A594D5A4C2940016225
:104AE000036A416D0C4011680C4357491940136922
:104AF0001B040B4351682B4009040B434449884273
:104B000008D04449884205D04349884202D04349ED
:104B1000884206D145689169494E090235402943CA
:104B20004160D2684465816D826503620020D1E7EF
:104B3000016A3C4E454C31400162036A4568C169D7
:104B40002140146824020C433849194013691B039F
:104B50000B435168334009030B432D49884208D069
:104B60002C49884205D02C49884202D02B498842E2
:104B700004D137490D40916989010D43D2684560E0
:104B8000C461026403620020A4E7036A2F4D8B43D3
:104B90000362036A466884692C4015682D022C4321
:104BA0002025AB431D0013691B012B438B43516828
:104BB0000D0117492B43884208D01649884205D079
:104BC0001549884202D01549884214D180218B436F
:104BD0001D00536940399B012B438B4391688D0124
:104BE00011492B430E4091690D4D890031432940F5
:104BF000D569EE000E43D268466084618263036229
:104C0000002067E7FFFEFFFF8CFFFEFFFFFDFFFFB9
:104C1000002C014000400140004401400048014098
:104C2000FFF7FFFFFFEFFFFFFFFBFFFFFFDFFFFFD0
:104C3000FFFFEFFFFF8FFFFEFFFFDFFFFFFFFBFF29
:104C4000FFFFFEFF8FFFFEFFFFFFFDFFFF8CFFFE5C
:104C5000FFBFFFFF8A680B7B10B513431A4A1B4C3A
:104C600013404A6813431A4A13400A681343194A07
:104C70001A40CB891343184A13400A691343174A51
:104C80001340CA6A134323401A43154B984202D07B
:104C90004264002010BD134B1A404B691A43124B5B
:104CA0001A408B691A43114B1A404B6A1A43104B36
:104CB0001A40CB691A430F4B1A400B6A1A430E4B2A
:104CC0001A408B6A1A43E3E7FFFBFFFFFF7FFFFFFA
:104CD000FFF7FFFFFFEFFFFFFFDFFFFFFFBFFFFF5C
:104CE000002C0140FFFFF0FFFFFFFFEFFFFF0FFF72
:104CF000FFFFFFFEFFFFFFFDFFFFFFDFF0B5C64632
:104D000000B5036804000D00012784B0DB072BD435
:104D10008B68096902680B4369690B43E9690B43B6
:104D200034490A40134303604368334A1340EA6836
:104D3000134343608368314A1340AA691343836075
:104D40002F4B984215D02F4B984223D02E4B984290
:104D50001BD02E4B984218D02E680F22E36A3604DF
:104D60009343360C1E43E662380004B080BCB8465C
:104D7000F0BD0320FFF7B2FC002803D06B68984613
:104D8000002B0BD101272E68E7E701A8FFF758FC9D
:104D90000398F1E70C20FFF7A1FCEDE72E68002750
:104DA0000B2EDAD88023EA691B029A420ED0184BE8
:104DB000B200D158FCF784F943465B08C01841465D
:104DC000FCF77EF903041B0CE360C6E7104BB2004E
:104DD000D158FCF775F9434640005B08C0184146BE
:104DE000FCF76EF90B4B03400007400F1843E060DF
:104DF000B3E7C046F369FFEFFFCFFFFFFFFCFFFF04
:104E0000003801400044004000480040004C004091
:104E1000CC6D0008F0FF0000FA2110B58900FCF706
:104E20004FF90022034B013858609A6005321A602E
:104E300010BDC04610E000E0014B18607047C0464E
:104E400010040020054B064A998811805988054AAC
:104E500011801A88044B1A807047C04674070020DE
:104E60005406002058060020C4050020C220124B22
:104E700080001A5811491140C02212040A431A50E6
:104E800080220321D2001A600D4B0E4A9A600E4A0E
:104E9000DA605A68120C12040A435A601A6801391F
:104EA0000A431A601A6806310A431A601A680739F9
:104EB0000A431A607047C04600E100E0FFFF00FFB0
:104EC0001C0002404024014074070020002300B56C
:104ED00083B0009301932A4B9A68D2074ED49A6804
:104EE00028491140802252050A439A60264B2749DF
:104EF0001868FCF7E5F8830018180A218000FCF711
:104F0000DFF80090009B002B05D0009B013B009335
:104F1000009B002BF9D10321194BDA680A4001925A
:104F2000DA688A43DA609A681949114080221206C9
:104F30000A439A609A68002AFCDB03200199DA6828
:104F400082430A43DA6040230093009B002B05D084
:104F5000009B013B0093009B002BF9D1084A0C49B0
:104F600093680B4001210B43936013681942FCD0F6
:104F70008023084A1B0411680B43136003B000BD73
:104F800000240140E8FFFF6F10040020400D0300E3
:104F9000E8FFFF7F08270140F0B5C646802500B531
:104FA00092B01822002106A801F09BFE10220021D9
:104FB00002A801F096FE102200210EA801F091FE39
:104FC00001215E4B6D031A6CA0242A431A641A6CEB
:104FD000E4052A400192019A5A6B88460A435A63B3
:104FE0005B6B10220B400093009B03230CA9200055
:104FF00000270C920D93FFF7A1FA402203230CA97E
:1050000020000C920D931097FFF798FAFF214C4A5D
:10501000402613684B4C8B43FA390B4313604A4BC1
:105020004A491A6820000A401A601A684849114023
:10503000802292010A4320211A601A680A431A60EA
:105040001A686031B2431A601A680A431A601A6813
:1050500040491140802292000A431A601A683E4972
:1050600011408022D2000A433C491A600B683C4A36
:105070001A403C4B13430B60F02300221B020692A4
:10508000079300220023089209930122002306A916
:105090000A920B93FFF712FA424623697021934359
:1050A00023612369304A20001A4080239B04134364
:1050B00080222361E368920313438022E360236923
:1050C00012039B009B0813430722236163699343E8
:1050D000033A1343636163690B436361636802A925
:1050E0009343636063680432934363600397049758
:1050F0000597FFF7C9F90F22A36A9343093A1343AF
:10510000A3626369194A1340F0226361A36A93435F
:105110003343A3626369164A13406361A36A154A65
:105120001A40C0231B011343A3626369124A134050
:105130001D43656112B080BCB846F0BD001002404E
:1051400004080240002401401C000240EFBFFFFFA2
:10515000FFCFFFFFFFFCFFFFFFF3FFFF082701402A
:10516000FFFF3FFE001000B0FFFFFFDFFFBFFFFFAC
:10517000FFEFFFFFFFF0FFFFFFFFEFFF0221174BE5
:105180001748DA6A0A43DA62DA6A8A43DA62412243
:10519000144B01399A61373A1A62134A12789A62AB
:1051A000124ADA625A690A435A61002202705A624C
:1051B0000F48104AD0601048906010480078506046
:1051C0000F4810608022D86892000243DA601A6AA1
:1051D0000A431A621A680A431A60704700100240B4
:1051E0007C07002000040040C6030020FFFF0000F1
:1051F000800700200800024034040040C203002061
:105200008B0900000221194B1948DA6A0A43DA6255
:10521000DA6A8A43DA626022164B17499A615D3A6C
:105220001A62164A12789A625C22DA625B3A0A7053
:105230005969114359611249C8601248886012487F
:10524000407817304860114808608021D86889008C
:105250000143D960196A114319628021586C09020F
:105260000143596419680A431A60704700100240EC
:1052700084040020000400407C0700206407002014
:105280000800024034040040C60300209B090000CF
:105290001020024B1B6918407047C04600040050A4
:1052A0000449054ACB681A4080235B001343CB6056
:1052B0007047C04600040050FFFCFFFF01221C4B5A
:1052C0001C481A7000221C4B1C495A621C4B1A685D
:1052D0000240102A27D01B4A9960DA601C21184B23
:1052E0005A68120C12040A435A601A681A390A439F
:1052F0001A601A6806310A431A601A6807390A43A5
:105300001A6080220C4B9200D8680243DA601A6A55
:105310000A431A628022586C120202435A641A68C5
:105320000A431A607047074AD9609A60D6E7C046B8
:10533000800800201040000000440140C803002005
:105340006C0002403444014070B50D4B1B78002BBB
:1053500015D100021043090408430126172128250E
:10536000084C221D34340300CB4033406B431433CC
:105370001380023201399442F5D1FFF79FFF70BDCF
:1053800080080020C8030020C220C021F0B5CE460E
:105390004746614A8000135809061B021B0A0B434B
:1053A00080B513508023A3B01B0113600021142289
:1053B00003A801F096FC202200210EA801F091FC28
:1053C0003022002116A801F08CFC1822002108A828
:1053D00001F087FC8021514D89022A6C50480A4314
:1053E0002A642B6C4F4A0B40FF210293029B1368E7
:1053F00080268B43D3390B4313604B4B4B491A68C0
:105400004B4C0A4010210A431A601A6800271040CA
:1054100080229201024320201A601A6882431A6097
:105420001A68203082431A601A684248B2433243F5
:105430001A601A6810408022520002431A601A68EB
:105440003D4810408022D20002431A600023984653
:105450006B4642469A814F2305936B460491200088
:1054600003A906921A77FFF731FA0822236801216F
:105470001E432660A36900261343A3616022002314
:1054800020000E920F930EAA109611971296139762
:1054900014961597FFF764FA0422A36916A993439B
:1054A000A361434618936B4660329B1842461A70BC
:1054B0006B4666229B1842461A8080220023920186
:1054C0001A921B9343462000219316961797FFF7D5
:1054D000C1FB02236A6B08A91A436A636A6B174807
:1054E000134001938022019B0223520008920993EA
:1054F000022200230A920B93002202230C920D93A6
:10550000FFF71CF80122236A1343236223B0C0BCB7
:10551000B946B046F0BDC04600E100E000100240D0
:10552000FFCFFFFF140802406C000240EFBFFFFFF7
:1055300000440140FFFCFFFFFFF3FFFF00040050A9
:10554000024B1B6818684000C00F70470004002021
:105550008021054B05485A5802405A508022D202F9
:10556000DA601A617047C04600180240FFFFFBFF77
:105570008022034903488B58406803438B5070478F
:105580000018024000040020C8223F4B30B51968C3
:10559000520091426AD23D490A78002A2FD13C4AF2
:1055A000186896239B00984209D9146839482368E3
:1055B00018408023DB020343236001230B7036492C
:1055C0000B78012B48D0042B46D0022B3AD0052B68
:1055D00038D0032B1CD0062B1AD0304B1B78002B55
:1055E00022D02F4B2F4819680140196019682E48A6
:1055F00001401960596852680A435A6030BD244A14
:10560000244D146820682840206000200870C7E7F7
:10561000106826490368194098239B000B430360D8
:105620001E4B1B78002BDCD11D4B526819680A43B6
:105630001A605A681C490A405A605A6819490A4057
:105640005A60DBE714681948236818409C239B00C4
:10565000034323600B78BCE71468144823681840A0
:10566000A0239B00034323600B78AEE71A689623C0
:105670009B009A4201D8064AA1E70449044A0B78E4
:10568000002B9CD191E7C046CC050020810800206A
:1056900000040020FFFFF3FF55000020520000200F
:1056A00000180240FFFFFBFFFFFFFDFF0FFCFFFFA5
:1056B000F0B5CE4647460326884680B585B015002E
:1056C0006A46CB171E404644B610B3000733DB08CA
:1056D000DB00D31A00AF9D466C46814632000021A4
:1056E000200001F0FEFA4346032B13DD484600225A
:1056F00093009C468178C37809041B060B4301780C
:1057000001320B434178043009020B436146635078
:105710009642EDDC8021344A7E60490213690B42D7
:10572000FCD15369002B04DA304B196891605B6837
:1057300093606B051BD102212B4A53690B435361C4
:105740005169EB0ADB000B43802153615369490225
:105750000B43536113690B42FCD1012311690B42C6
:1057600000D013610221204A53698B435361002307
:10577000BB60FB60FB687A689A4228D980220126C8
:10578000194952024B6933434B61F868BB6880008A
:1057900000595B191860F868BB6801308000005937
:1057A00004335B1918600B691342FCD10B691E426C
:1057B00000D00E614B69B3434B61BB680833BB60DB
:1057C000FB680233FB60F8687B689842DAD3802379
:1057D000BD46054A1B0651690B43536105B0C0BC69
:1057E000B946B046F0BDC046002002400804002083
:1057F00070B5002A2BDD040003230C4323405C42D8
:10580000634102244D1C451BAC42A44164421C422E
:105810001ED0531E082B1BD90B009408A40064183B
:10582000451A1E68EE500433A342FAD10324130034
:10583000A34314420BD0CC5CC4545C1CA24206DDD2
:105840000D5D023305559A4201DDCA5CC25470BD3C
:105850008A18451A0B786B5401319142FAD1F6E758
:10586000024B034A9A6062B67047C04600ED00E002
:105870000010000807212C4A10B513688B43053926
:105880000B43136013688022284B520019680A43A7
:1058900080211A60C9001A680A42FCD001211A6EE0
:1058A0000A431A66214B01311A6E1142FCD0DA68A4
:1058B0001F4911401F4A0A43DA60802219685204C6
:1058C0000A431A608022D96852050A438021DA60AF
:1058D000164B89041A680A42FCD09A681649134C80
:1058E0000A4007219A609A688A4305390A439A60F8
:1058F0003822A3681340102BFBD1104AA36810482C
:105900001340A360FFF788FA0D48FFF795FA0C489B
:10591000FFF792FA636D0B4A13406365636D9B005A
:105920009B08636510BDC046002002400010024085
:105930008C80FF1F02080020FFF0FFFFFF8FFFFF9A
:105940000090D003FFFFBFFFF0B5C64600B590B092
:10595000182200210AA801F0C4F91022002106A88B
:1059600001F0BFF90122444C9046636BA020134321
:105970006363636B04A913400393039B0223626B6D
:10598000C0051A436263626B002513400293042230
:10599000029B032304920593FEF7D0FDA020082666
:1059A000032704A9C005049605970895FEF7C6FDD0
:1059B00004A93248049605970895FEF7BFFD80229A
:1059C000032304A92D48049205930895FEF7B6FD1C
:1059D0004246236C0AA913432364236C284C1340CA
:1059E0000193019B80239B000B93813BFF3B200095
:1059F0000C930D950E950F95FEF786FD2368214AB1
:105A00002148134023602168204B014021601A681F
:105A100002401A6021681E48014021601A681D4931
:105A200002401A601C4B00951868FBF749FBC8231D
:105A300043430093009B002B05D0009B013B009348
:105A4000009B002BF9D18422144B15489958014032
:105A5000995080215A5802405A50C321FF20114BBF
:105A600089005A5882435A50802252011A6010B05D
:105A700080BCB846F0BDC046001002400004005093
:105A800004020140FFFFF3FFFFF7FFFF00020140A8
:105A9000FFBFFFFF80841E0010040020001802409A
:105AA000FFFFFBFF00E100E0084B094A07211A60F5
:105AB000084A1A6000225A60074A9A60DA6811425E
:105AC000FCD1054A1A61054A1A607047003000404F
:105AD000CCCC000055550000FF0F0000AAAA000022
:105AE000F0B5DE4657464E464546E0B5A3B0142213
:105AF000002103A801F0F5F8202200210EA801F0F2
:105B0000F0F83022002116A801F0EBF8182200214D
:105B100008A801F0E6F88B4B802299461B6C120115
:105B2000924613434A461364136C52461340864C04
:105B30000293029B854B03A920000593FEF7C6FE46
:105B4000802208212368002613432360804B6022B3
:105B50009846A36900270B43A36100230E920F937D
:105B60000EAB8B461A00200007391096119712963B
:105B7000139714961597FEF7F3FE0422514600255D
:105B8000A36920009343A361A3690B43A3610EABF8
:105B90001A0010210F951095FEF7E2FEA3696D49DA
:105BA00058460B40A36143465B688021034340464F
:105BB00043600EAB1A00200049000F951095FEF7C8
:105BC000CFFE4346042240465B68802193434360F6
:105BD000436850460343404643600EAB1A00200022
:105BE00049010F951095FEF7BBFE434659495B6886
:105BF00020000B4041464B60CB6B59460B4341465E
:105C0000CB6380210EAB1A0049020F951095FEF769
:105C1000A7FE434604224146DB6B20009343CB633F
:105C200063686C329343636063684B4A642113403A
:105C300080226360A36893436A46A36028235218B6
:105C4000137066226B469B181D8080239B011A935C
:105C5000802316A99B0418951B951C951D951E93D2
:105C60001F952095219516961797FEF7F3FF4B4643
:105C70005A6B012349461A434A634A6B0024134076
:105C80000193019B02234A6B02251A434A634A6B24
:105C900008A9134000938022009B022308920993D5
:105CA000A023DB05180098460A960B970C940D95D7
:105CB000FEF744FC0122022308920993274B08A90E
:105CC000994618000A960B970C940D95FEF736FC32
:105CD0000222022308A94846089209930A960B97C4
:105CE0000C940D95FEF72AFC80220223520008A98D
:105CF0004046089209930A960B970C940D95FEF76F
:105D00001DFC80220223920008A9404608920993B4
:105D10000A960B970C940D95FEF710FC8022022337
:105D2000D200404608A9089209930A960B970C9452
:105D30000D95FEF703FC23B0F0BCBB46B246A94666
:105D4000A046F0BD00100240002C0140690A00008E
:105D5000182C0140FFFBFFFFFFFF0FFF0004005066
:105D6000F0B58FB003AD14220021280000F0B9FF78
:105D70000C2200210AA800F0B4FF022201263D4BAC
:105D80003D48D96B80271143D963D96B3B4C1140F7
:105D900002910299596B11435963596B0A40019260
:105DA000019A5A6B08A932435A635B6B1022334045
:105DB0000093009B02230D9608920993FEF7BEFB09
:105DC000FF2120202E4A13688B43034313602D4B81
:105DD0001A6822401A601A682B4C22401A601A680E
:105DE0002A4C82431A601A68203082431A601A686B
:105DF0002748BA433A431A601A681040802252007A
:105E000002431A601A68234810408022120102439C
:105E1000C4201A60204B80001A588A431A508022EE
:105E200052021A6000231D4A290020002B8004938F
:105E300005920693FEF74AFD70222368BB43236058
:105E4000636893436360A3686D3ABB43A360A3692F
:105E500093433343A361A36909329343A361A369C5
:105E6000E4329343A361236AE63A134323620FB0FB
:105E7000F0BDC0460010024000040050EFBFFFFF1D
:105E80000008024008000240FFCFFFFF000400406E
:105E9000FFFCFFFFFFF3FFFF00E100E0FFFF00005A
:105EA00030B587B001AD14220021280000F019FFA1
:105EB0001023C420154A8000D16B154C1943D163BF
:105EC000D26B144913400093009B134B1A58114096
:105ED000802212020A431A50802292021A603F2343
:105EE0002B80002329000293200032330393FEF716
:105EF000EDFC8022702123689343236063688B4309
:105F00006360A3689343A36007B030BD00100240F4
:105F100000100040FF00FFFF00E100E0F0B5CE46BA
:105F2000474601258021654C80B5236C8FB02B43FB
:105F30002364236C49052B400493049BE26B604E61
:105F40000A43E263E36B80270B4008210393039B22
:105F50005C4B1A680A431A601A6808310A431A60CF
:105F60008023594A5B0011680B431360FFF782FCE2
:105F7000636B56492B436363636B2B400193019B17
:105F80000223626B1A436263626B13400293029BAB
:105F9000A36B2B43A363A36B2B400893089BC223E3
:105FA0009B00F25811408022D2010A43F250802215
:105FB00092003260F258464911408022D2030A43CF
:105FC000F250F8333360FFF7BFFCFFF789FD14226E
:105FD000002109A800F085FEE36B09A92B43E363C8
:105FE000E36B1D400795079B1F23994680254A4672
:105FF0006B46ED059A84374B280098460B93FEF7C5
:1060000065FC2B68344ABB432B60AB68134070229D
:10601000AB606B6893436B60AB68BB43AB60FFF7EF
:106020009FFE1422002109A800F05BFE8021226C53
:1060300009020A432264C422236C92000B40069397
:10604000069BB358254D1B021B0AB35080231B032C
:1060500033604A466B469A840023424609A92800C9
:106060000A930B920C93FEF731FC2B681422BB436E
:106070002B60002109A800F034FE8021226CC902A7
:106080000A432264236C6A460B400593059B3F2319
:1060900093844346124C09A920000B93FEF716FC8B
:1060A00023681F432760FFF7FBFE00F085FBFFF727
:1060B0006BF90FB0C0BCB946B046F0BD001002404D
:1060C00000E100E00000014000200240FF00FFFF6F
:1060D000FFFF00FFFFFF0000F8BFFEFF00200040B1
:1060E00000480140014B58637047C046002C0140F6
:1060F000014B98637047C046002C0140014BD863A8
:106100007047C046002C01400121024A53690B43ED
:1061100053617047002C01400022024B9A625A6280
:106120007047C0460004004010B501241021494BBF
:1061300082B01A6A22431A621A6A0A431A628022D9
:10614000196A52000A4304211A621A6A0A431A623F
:106150001A6A3C310A431A628022196AD2000A4341
:106160001A628022196A52020A431A628022196A4C
:1061700052010A431A6264221A641A6822431A609E
:106180008022596C12020A435A645A6922435A61A6
:10619000314B1A6A22431A621A6822431A602F4B43
:1061A0001A6822431A605A6922435A61DA68224304
:1061B000DA60DA68A243DA60294B1A6822431A606F
:1061C0005A6922435A618023DB051A6822431A6008
:1061D0005A6922435A61234B1A6822431A605A694A
:1061E00022435A61DA682243DA60FEF7D5FEFEF7F1
:1061F0003DFEFEF76BFE00231B4A019313681B490B
:106200001C431B4B14601868FAF75AFF83001818D8
:106210000A210001FAF754FF0190019B002B05D0E1
:10622000019B013B0193019B002BF9D1C1208021EF
:10623000104A8000135809061B021B0A0B43135017
:106240008023136080220C491202C8580243CA50AE
:1062500002B010BD002C01400004004000200040AE
:10626000004801400010004004020140400D0300BE
:106270001004002000E100E000180240A023DB052C
:106280001A6819490C201140802252030A431A60EF
:106290008022D2009A621A68144911408022D202E8
:1062A0000A431A60802292009A621A6810491140CB
:1062B000802252020A431A6080220E4952009A62DA
:1062C0000A688243043802430A600A680538824338
:1062D000013802430A601A680749114080221202FD
:1062E0000A431A607047C046FFFFCFFFFFFFF3FF6E
:1062F000FFFFFCFF00040050FF3FFFFF0C211C4A82
:106300001C4813688B4308390B43136002239362C4
:10631000A023DB0519680840802149030143196067
:1063200080210320C900996211688143023801432A
:10633000116090621A68104911408022D2020A430B
:106340001A60802292009A621A680C4911408022D9
:10635000D2010A431A6080229A621A6808491140E1
:10636000802252020A431A60802252009A627047C9
:1063700000040050FFFFCFFFFFFFF3FFFF3FFFFFD1
:10638000FFFFFCFF10B5062840D8AE4B80001B581D
:106390009F460321AC4AAD4813688B4302390B4337
:1063A0001360A0239162DB05196808408021C902AF
:1063B000014319608021890099621968A448084046
:1063C0008021C90101431960802199611968A148A0
:1063D00008408021490201431960802149009962E7
:1063E0009D4B1B7D002B00D01DE11368F4398B43BE
:1063F00008390B43136002239362A021C9050B687F
:10640000964A1A4080239B0313430B6010BDA023C0
:10641000DB051A688E49032011408022D2010A430D
:106420001A6080229A621A688A49114080225202B8
:106430000A431A60802252009A62834A116881439B
:10644000023801431160906119688048084080213A
:10645000C902014319608021890099627E4B1B7D2E
:10646000002B00D0DFE0F5391368FF39BFE70C21BE
:10647000754A7A4813688B4308390B43136002232B
:106480009362A023DB05196808408021490301437A
:10649000196080210320C900996211688143023884
:1064A0000143116090611A68684911408022D2024C
:1064B0000A431A60802292009A62674A127D002A7B
:1064C0003CD11A68624911408022D2010A431A6005
:1064D00080229A62A021C9050B685E4A1A40802377
:1064E0009B0213430B6091E70321574A57481368F7
:1064F0008B4302390B431360A0239162DB051968BB
:1065000008408021C9020143196080210C208900C4
:106510009962116881430838014311600221916139
:106520001A684E491140802252030A431A608022A1
:10653000D2009A62484A127D002AC2D01A684449A1
:106540001140802212020A431A60C3E7A023DB0530
:106550001A683F490C2011408022D2010A431A6078
:1065600080229A621A683B4902241140802252021A
:106570000A431A60802252009A62334A11688143AA
:10658000083801431160946119683448084080213B
:106590004903014319608021C90099622E4B1B7D7C
:1065A000002B47D0032113688B4323431360A021A2
:1065B000C9050B68254A1A4080231B0313430B604F
:1065C00024E70C21204A0224136824488B4308390D
:1065D0000B431360A0239462DB05196808408021F7
:1065E0004903014319608021C9009962196818485C
:1065F00008408021C901014319608021996119680F
:106600001448084080214902014319608021490053
:106610009962114B1B7D002B0CD0032113688B4317
:106620001C431460C3E70C2113688B4304390B43EC
:106630001360E2E6032113688B4302390B431360B6
:106640009162B4E7FC6D000800040050FFFFF3FF07
:10665000FF3FFFFFFFFFFCFF94060020FFFFCFFF7F
:106660000C211C4A1C4813688B4308390B431360E8
:1066700002239361A023DB051968084080214903A8
:106680000143196080210320C90099621168814388
:1066900002380143116090611A681049114080224C
:1066A000D2020A431A60802292009A621A680C4948
:1066B00011408022D2010A431A6080229A611A682E
:1066C00008491140802252020A431A608022520077
:1066D0009A62704700040050FFFFCFFFFFFFF3FFF7
:1066E000FF3FFFFFFFFFFCFF2D4B1B7D002B32D137
:1066F0000C212C4A2C4813688B4308390B43136038
:1067000002239362A023DB051968084080218903D6
:10671000014303201960116881430238014311606D
:1067200090621A6821491140802212030A431A60BC
:106730001A681F4911408022D2010A431A60802240
:106740009A62A021C9050B681A4A1A4080239B024D
:1067500013430B6070470C22124913480B68934394
:10676000043A13430B60A023DB051A681040802213
:106770009203024303201A600A68824301380243ED
:106780000A601A6809491140802212030A431A60FC
:106790001A6807491140802212020A431A60D0E7A2
:1067A0009406002000040050FFFFCFFFFFFFF3FF1F
:1067B000FF3FFFFFFFFFFCFF30B591B0202200211B
:1067C00008A800F08EFA1022002104A800F089FA2F
:1067D0008020534BC001196C0125014319641A6CC8
:1067E000504C02400192019A0222596B4E481143CB
:1067F00059635B6B02A91A400092009B402202235E
:106800000595029203930695FDF798FEC620C021D8
:10681000464A8000135809061B021B0A0B431350FB
:106820008023FF211B051360414A200013688B431E
:10683000CC390B4313603F4B3F491A680A40102183
:106840000A431A601A683D490A4020211A601A68F2
:106850008A431A601A6820318A431A601A684031E4
:106860000A431A601A6836490A401A601A6835499C
:106870000A401A60E12300225B0208920993002279
:1068800000230A920B9300220C230C920D930023F9
:1068900008A90F93FEF732FAA3682B4ADB00DB0846
:1068A000A360A36880211340A3602368274AC9031B
:1068B000134023606368264A134022226360A36862
:1068C0009343A360A3681A3A13438022A36023680A
:1068D00092031D432560E3691342FCD0E3690B4238
:1068E000F9D0144B1B4C1A681B481C492240102A33
:1068F00012D09860D96031210E4A53681B0C1B04DA
:106900000B43536013682F390B4313601368063130
:106910000B43136011B030BDD8609960EBE7C046FF
:1069200000100240003801400004005000E100E087
:106930000808024030000240EFBFFFFFFFCFFFFF1B
:10694000FFFCFFFFFFF3FFFFFFFFFFF1FFFFFFDF94
:10695000FFB7FFFF10400000180500202838014055
:1069600010B50C2408230C4A1168A1431943116087
:106970000A494B681B0C1B04034380204B6093683F
:10698000034393600B687F3803430B600421136853
:10699000A3430B43136010BD003801403000024098
:1069A0007047C046FEE7C0467047C0467047C046C5
:1069B0007047C04610B5254B1B78002B03D0244BE5
:1069C0001B78002B2AD10422224B19680A420BD0D3
:1069D00021490978002907D00A242048016AA143E7
:1069E000083C214301625A601A4B1A68920705D489
:1069F0001A68120701D501225A6010BD01215A6898
:106A00000A435A600022164B1A60FDF741FA8023B0
:106A1000144A1B0291680B439360EEE701240D4A70
:106A200053682343536000220D4B1A600E4B1B78B2
:106A3000002B05D0FEF7A2FB02220C4B1A70E6E7F2
:106A4000FEF7E0FB094B1C70E1E7C046080600209A
:106A50004D060020000002404F05002000040040C9
:106A600008000240001802407C0700201C0600209D
:106A7000154B10B51A68920603D510225A60FEF71E
:106A8000E1F98022104B19680A4200D05A600E4B7F
:106A90001A6892050BD41A68120507D580220121C5
:106AA00052005A60094A13688B43136010BD0021DD
:106AB000074A11708022012152005A60034A13686C
:106AC0008B431360F2E7C0460000024030000240F2
:106AD0003606002070B580251C4CED0223692B4240
